:020000040800F2
:1000000040E3002021030008B11C0008B91B0008D0
:10001000791C000885150008092E00080000000062
:10002000000000000000000000000000690200085D
:10003000E919000800000000BD020008ED230008D7
:100040003B0300083B0300083B0300083B03000898
:100050003B0300083B0300083B0300083B03000888
:100060003B0300083B0300083B0300083B03000878
:100070003B0300083B0300083B0300083B03000868
:100080003B0300083B0300083B030008000000009E
:100090000000000000000000000000003B0300081A
:1000A0003B0300083B0300083B0300083B03000838
:1000B000D9240008652500083B0300083B0300081D
:1000C0003B0300083B0300083B0300083B03000818
:1000D0003B0300083B030008ED2A00080000000075
:1000E0003B0300083B0300083B030008000000003E
:1000F0000000000000000000000000003B030008BA
:10010000000000003B030008A52500083B03000891
:1001100000000000000000000000000000000000DF
:10012000951800083B0300083B0300083B03000848
:100130003B03000800000000000000000000000079
:100140000000000000000000000000003B03000869
:100150003B0300083B0300083B0300083B03000887
:100160003B0300083B030008000000000000000003
:10017000000000000000000000000000000000007F
:10018000000000003B030008000000000000000029
:100190003B0300084B1C012B98BF70472DE9F0036F
:1001A000911C9B08B1F80480B1F802900A8831F8DC
:1001B00002CC8044814402448444D9F80070D8F8C9
:1001C00000601568DCF80040C9F80060C8F80070ED
:1001D000CCF800501460D9F80470D8F80460556861
:1001E000DCF80440C9F80460C8F80470CCF8045086
:1001F000546008315B1ED5D1BDE8F00370474B1C3D
:10020000012B98BF70472DE9F003911C9B08B1F8B2
:100210000480B1F802900A8831F802CC00EB58084B
:1002200000EB590900EB520200EB5C0CD9F80070AE
:10023000D8F800601568DCF80040C9F80060C8F81C
:100240000070CCF80050146008315B1EDFD1BDE8AF
:10025000F0037047DFF80CD001F02EF8004800479B
:10026000CD33000840E300202A4B19680868B0E845
:10027000F04F80F30988BFF36F8F4FF0000080F3D9
:10028000118870470000000006480068006880F38D
:10029000088862B661B6BFF34F8FBFF36F8F00DF80
:1002A00000BF00BF08ED00E0DFF80C00016841F47A
:1002B00070010160704700BF88ED00E0EFF3098036
:1002C000BFF36F8F134B1A681EF0100F08BF20ED9D
:1002D000108A20E9F04F106008B44FF0500080F30E
:1002E0001188BFF34F8FBFF36F8F04F07FF94FF08A
:1002F000000080F3118808BC19680868B0E8F04F66
:100300001EF0100F08BFB0EC108A80F30988BFF30D
:100310006F8F7047B4000020EFF305807047000036
:100320000648804706480047FEE7FEE7FEE7FEE78F
:10033000FEE7FEE7FEE7FEE7FEE7FEE7192400081A
:10034000550200089FED3D0A5FEA920C57D000BFAE
:10035000D0ED000A90ED011A0B1D60EEA00A0830E6
:1003600041EE010AF5EEC00AF1EE10FAC6BFB1EE99
:10037000E01A81ED001A81ED000AD0ED000A90ED3F
:10038000011A191D60EEA00A083041EE010AF5EECF
:10039000C00AF1EE10FAC6BFB1EEE01A83ED001A02
:1003A00083ED000AD0ED000A90ED011A0B1D60EEFE
:1003B000A00A083041EE010AF5EEC00AF1EE10FA8B
:1003C000C6BFB1EEE01A81ED001A81ED000A90ED92
:1003D000001AD0ED010A191D21EE011A083000EEB5
:1003E000A01AB5EEC01AF1EE10FAC6BFF1EEC10ABE
:1003F000C3ED000A83ED000ABCF1010CA8D112F094
:10040000030208BF704700BFD0ED000A90ED011A4B
:100410000B4660EEA00A091D083041EE010AF5EE18
:10042000C00AF1EE10FAC6BFB1EEE01A83ED001A71
:1004300083ED000A521EE7D1704700000000000063
:100440002DE9F04106462DED028B8C46008873683D
:1004500001EB80044508274601EB850004EB85028B
:100460005FEA95087DD000BFD1ED003AD4ED001AC7
:1004700091ED012A94ED013A73EEA16A91ED024AE1
:1004800091ED031AD4ED022AD4ED035A90ED008ABF
:1004900090ED017A90ED020A90ED036A92ED005A18
:1004A000D2ED014AD2ED027AD2ED030AC1ED006A23
:1004B00072EE036A73EEE13A74EEC71AC1ED016A97
:1004C00074EE226A74EE622A37EEC04AC1ED026A07
:1004D00071EE256AC1ED036A72EE436A31EE652A58
:1004E00038EE051A35EE483A80ED001A37EE241A38
:1004F00080ED011A30EE271A80ED021A36EE201A2E
:1005000080ED031A30EEC61A93ED000AD3ED010A0E
:1005100063EE804A26EEA05A66EE805A63EEA03A59
:1005200074EE854A75EEE33AC4ED004A63EE204A64
:10053000C4ED013A61EE803A61EEA00A23EE000AB2
:1005400074EEE31A30EE800AC2ED001A82ED010A61
:1005500093ED020AD3ED030A62EE803A22EE203ACE
:1005600000E024E062EEA01A22EE002A73EE832A55
:100570001030103172EE611AC4ED022A24EE202AE6
:10058000C4ED031A61EE001A61EE200A24EE000A9F
:10059000103332EE611A103430EE800A82ED021A06
:1005A00082ED030A1032B8F101087FF45DAF2946ED
:1005B00002236046726800F089FB72682946BDEC30
:1005C000028B3846BDE8F041022300F07FBB2DE9E5
:1005D000F34F2DED048B87B00B980088470801EB93
:1005E000870000EB870606EB8705CDE90056DDF8AE
:1005F0002C80A5F1040C0CEB8703CDE902014FEA36
:100600005709D8F804800427CDE90497D1ED000AF2
:1006100096ED000A90ED011A95ED013A70EE802AF0
:1006200070EEC03AD1ED010A96ED010A041F321FA7
:1006300030EE802A70EEC01A31EE230AD0ED000AA7
:1006400032EE415A33EEC11A30EE434A71EEE04ABF
:1006500095ED000A70EEA11A35EE435A74EE805AF9
:1006600072EEE04A70EEA20A71EEC01A31EE031A81
:1006700074EEC04A30EE800A062708F1080A81EDC0
:10068000000A90ED010AD5ED010A08F1100B30EED9
:10069000020A08F1180830EE200A81ED010A80ED07
:1006A000004AC0ED015AC6ED004A86ED015A85EDBB
:1006B000001AC5ED011ADDF8109008300831083530
:1006C0000836A9F102095FEA590900F0078100BF65
:1006D000D1ED000A96ED000AD0ED011AD5ED014AE0
:1006E00030EE802A30EEC05AD1ED010A96ED010AB3
:1006F00070EE802A30EEC01A31EE850AD5ED000A80
:1007000030EE644A90ED000A31EE403A30EE011AC4
:1007100073EE205A32EE403A30EE020A31EE601AA1
:1007200073EE603A30EE200A32EEE13A75EE611A6D
:1007300081ED000A90ED010AD5ED010A33EE643A2D
:1007400030EE220A71EEA41A30EE200A81ED010A81
:10075000D4ED002ADCED004A54ED010A1CED010A3B
:1007600032EEA47A32EEE49A72EEE42A52ED018A75
:1007700070EE807A30EEC02A72EEE82AD2ED000ADE
:1007800093ED000A13ED018A30EEC05A72EE886ACA
:1007900077EEE82A35EE026A32EEC85A77EE602A22
:1007A00072EEC04A70EEC02A70EE870A72EEC22A5C
:1007B00030EE800A38EE682A84ED000A12ED010A54
:1007C00053ED010A32EE492A30EE270A30EE200AB4
:1007D00004ED010A9AED000ADAED010A64EE007AEE
:1007E00025EEA07A65EE805A24EE204A37EE877A0D
:1007F00035EEC44A80ED007A80ED014A26EEA04A2B
:1008000066EE005A66EE200A26EE800A083034EEC4
:10081000654A083130EE800A82ED004A083C02ED5C
:10082000010A9BED000ADBED010ADDF814E023EE7E
:10083000804A63EE205A23EE003A63EEA03A083A6B
:1008400034EE254A0BEB8E0B33EE633A86ED004A0D
:100850000AF1080A86ED013AB1EE643A083663EE11
:10086000003A25EE203A25EE000A64EEA00A33EEA7
:10087000C33A30EEC00A8CED003A0CED010A98ED57
:10088000000AD8ED010A08EB870861EE803A21EEF4
:10089000203A21EE001A61EEA01AACF1080C33EEFA
:1008A000833A31EE611A85ED003A62EE801A85EDE9
:1008B000011A22EE201A62EEA00A22EE000A083582
:1008C00031EE611A30EE800A83ED001A03ED010A61
:1008D000083BB9F101097FF4FBAE00BFD1ED000A7E
:1008E00096ED000A91ED011AD0ED015A30EE802A02
:1008F00070EEC00A96ED010A95ED015A042371EEDF
:10090000001A71EE404A35EEA00A90ED001A31EE61
:10091000E54A70EEE50A30EE453A95ED000A34EE10
:10092000454A30EE855A74EEC12A72EE413A71EEB4
:10093000240A31EE021A72EE802A73EEC03A70EE8B
:10094000C00A31EE000A81ED000A90ED010A95ED32
:10095000011A30EE210A30EE010A81ED010A9AED0A
:10096000000A9AED011A63EE001A22EE812A22EEA5
:10097000800A23EE011A71EE821A30EE410AC0EDB0
:10098000001A80ED010A9BED000A9BED011A63EE4F
:10099000801A24EE012A24EE000A23EE811A71EE59
:1009A000821A30EE410AC6ED001A86ED010A98ED72
:1009B000010A98ED001A60EE801A25EE012A60EE19
:1009C000810A25EE000A32EE211A30EEC00A85EDCA
:1009D000001A85ED010A0B984268DDE9030100F079
:1009E00075F90B98042304994268029800F06EF997
:1009F0000B98042304994268019800F067F90B985A
:100A0000049904234268009807B0BDEC048B02B03F
:100A1000BDE8F04F00F05AB92DE9F041048898463E
:100A200017460D460646012A20D1281DF4B1A0F133
:100A3000080114F0010F06D091ED020AB1EE400A50
:100A400081ED020A08315FEA540C0FD091ED020AE1
:100A5000B1EE400A81ED020A91ED040AB1EE400ABE
:100A600081ED040A1031BCF1010CEFD1B4F5807FA7
:100A70001BD008DC102C13D0202C16D0402C19D001
:100A8000802C0DD01CE0B4F5007F13D0B4F5806F3E
:100A900006D0B4F5006F08D0B4F5805F0AD00FE03F
:100AA00029463046FFF7CCFC0AE029463046FFF7DE
:100AB0008EFD05E0214601232846726800F006F904
:100AC000B8F1000F04D0B1892846B268FFF762FB85
:100AD000012F18BFBDE8F08100EE104AB7EE001AF2
:100AE000002CF8EE400A81EE200A08BFBDE8F08134
:100AF000A5F1080014F0010F0ED0D0ED020A60EE4F
:100B0000800AC0ED020AD0ED030AF1EE600A60EE41
:100B1000800AC0ED030A0830610808BFBDE8F08113
:100B2000D0ED020A60EE800AC0ED020AD0ED030AA1
:100B3000F1EE600A60EE800AC0ED030AD0ED040A0F
:100B400060EE800AC0ED040AD0ED050AF1EE600AFD
:100B500060EE800AC0ED050A1030491EE0D1BDE804
:100B6000F081000070B44FF0000CB0EC010A4E1E92
:100B70006446B50831D000BFD0ED000A90ED011AEF
:100B80000830B4EEE00AF1EE10FA3CBFB0EE600AB5
:100B90000CF10104F0EC010AB4EEC10AF1EE10FA16
:100BA0003CBFB0EE410A0CF10204B0EC011AB4EE05
:100BB000E00AF1EE10FA3CBFB0EE600A0CF103045B
:100BC000B4EEC10AF1EE10FA3CBFB0EE410A0CF1EE
:100BD00004046D1E0CF1040CCED106F0030C5FEA88
:100BE0000C0617D0B6F1004F19D2002EC8BF002551
:100BF00010DD00BFD0ED000AF4EEC00AF1EE10FAED
:100C000004DD4C19B0EE600AA4EB0C04001D6D1C51
:100C1000761EEFD182ED000A1C6070BC7047F0ECCC
:100C2000010AB4EEE00AF1EE10FA3CBFB0EE600A41
:100C3000A1EB0C04BCF1010CF1D1EBE79FED220A12
:100C40008B0812D090ED002A90ED011AD0ED020A27
:100C500030EE020AD0ED031A10305B1E30EE010AAE
:100C600030EE200A30EE210AECD111F003031AD045
:100C7000B3F1004F20D2002B15DD001F13F0010F40
:100C800004D0D0ED010A001D30EE800A5B080AD0C6
:100C9000D0ED010A30EE800AD0ED020A08305B1E6A
:100CA00030EE800AF4D100EE901AF8EE600A80EE81
:100CB000201A82ED001A7047F0EC010A5B1E30EE3C
:100CC000800AF9D1EFE70000000000002DE9FF4F96
:100CD0002DED108B82B09FEDFEFA0B461C46DB0813
:100CE0004FF0000C0CEB030505EB030808EB0309C0
:100CF00009EB030606EB030A00EBCC0700EBC60684
:100D000097ED001AD6ED000A0AEB030B00EBC505C0
:100D100000EBCA0A31EE200A71EE601A95ED002A46
:100D2000DAED000A0BEB030E00EBC80832EE201AD6
:100D300000EBCB0B32EE602AD8ED002ADBED000A87
:100D400000EBC90900EBCE0E99ED003A9EED004A8A
:100D500072EEA03A72EEE02A73EE040A33EE443AE1
:100D600070EE636A70EE233A31EE600A71EE200A8B
:100D700033EEA01A73EEE00A87ED001AC6ED000A02
:100D800097ED011AD6ED010AD5ED013A98ED014A29
:100D900031EE206A71EE600A9AED011A99ED015A5E
:100DA00073EE814A73EEC13A9BED011A34EE017A7B
:100DB00034EE411A9EED014A75EE045A35EE444A6E
:100DC00036EE475A36EE076A34EEE57A74EEA54AF7
:100DD00076EE245A76EE644AC7ED015AC6ED014A12
:100DE00076EE874AC8ED004A76EEC74ACBED004A58
:100DF00075EE404A35EE000AC8ED014A8BED010A56
:100E000032EE430A32EE032A20EE0F0A62EE0F4A58
:100E100033EEC42AA4448C4522EE0F3A33EE842AE2
:100E200030EEC34A62EE0F3A30EE833A31EEC02A1A
:100E300031EE800A71EE630A31EE231A72EEE41A83
:100E400072EEA42A70EE013A30EE410AC5ED003A86
:100E50008EED000A32EE200A8AED000A32EE600AB8
:100E600089ED000A33EE620A85ED010A33EE220AAB
:100E70008EED010A34EE610A8AED010A34EE210A90
:100E800089ED010AFFF42EAF082B3FBF02B0BDEC85
:100E9000108B04B0BDE8F08F4FF0000CCDF804C00B
:100EA0004FF0010CCDF800C0DDF804C0159DAC4436
:100EB0004FEA8C0505EB0C07CDF804C007EB0C09D5
:100EC0004FEA4C0808EB0C0609EB0C0A02EBCC0CC1
:100ED00002EBC80802EBC60602EBC50502EBC7072A
:100EE00002EBC90902EBCA0A9CED00DA9CED018A0B
:100EF000D8ED00CA96ED00CAD5ED00BA97ED00BA5C
:100F0000D9ED00AADAED008AD8ED017A96ED01AAB2
:100F100095ED017AD7ED016A99ED016ADAED019A52
:100F2000DDF800C00CEB0307FD1805EB030A0AEB24
:100F3000030808EB030606EB030B00EBCC0900EB00
:100F4000C808D9ED000A98ED000A00EBC70700EBCE
:100F5000C606D7ED001A96ED001A70EE803A0BEB3C
:100F6000030E70EEC00A31EE810A00EBC50500EBFE
:100F7000CB0B31EEC11AD5ED001A9BED002A00EB28
:100F8000CA0A00EBCE0E31EE824A71EEC21A9AED19
:100F9000002ADEED002A32EE223A32EE622A73EEA9
:100FA000C42A73EE843A30EE435A30EE030A33EE2D
:100FB000803A73EEC0DA89ED003A99ED010A98EDB6
:100FC000013AD7ED013A95ED014A70EE03EA30EEB1
:100FD000433A96ED010A9AED01EADEED014A33EE5D
:100FE000809A73EEC03A9BED010A74EE005A34EE1B
:100FF000404A3EEE240A7EEE644A3EEEE5EA7EEE8C
:10100000A55A79EE40EA39EE009A32EEAE0A72EE57
:10101000EE2A75EE89EA35EEC99A7EEE455AC9ED9B
:1010200001EA3EEE055A2BEEADEA67EE09EA2BEE39
:10103000899A67EE2DDA3EEE2EEA39EE6D9A88ED4A
:1010400000EA67EEA5DA88ED019A2CEE809A6CEE44
:10105000A55A27EE800A39EE2D9A35EEC00A85EDA5
:10106000009A66EE055A85ED010A2AEEA20A2AEEDA
:10107000855A66EE222A30EE250A8BED000A35EEFF
:10108000620A73EEA42A8BED010A31EE420A31EEB8
:10109000021A33EEE42A62EE8F3A20EE0F0A21EEB6
:1010A0000F1A22EE0F2A70EEC02A30EE800A71EE7F
:1010B000C10A71EE811A33EE421A33EE022A34EE7F
:1010C000633A34EE234A70EE043A30EE444A01E0CB
:1010D000F304353F72EE834A72EEC32A32EE613A70
:1010E00032EE210A71EE601A71EE200A2DEE232AEB
:1010F00028EE031A2DEE033A68EE233AA44432EEAA
:10110000011A28EE842A8C4587ED001A33EE631A03
:1011100029EE843A87ED011A29EE801A28EE800A1A
:1011200032EE011A30EE430A26EEA42A8EED001AA2
:101130008EED010A2BEE240A26EEA11A6BEE211A7F
:1011400030EE010A2CEE221A86ED000A31EEC20AB8
:101150006AEE221A86ED010A2AEE200A6CEE200AB7
:1011600031EE000A8AED000A30EEE10A8AED010A4A
:10117000FFF4D8AEDDF800C00CF1010CCDF800C0D2
:1011800063453FF691AEDDF854C04FF6FF7404EAB4
:10119000CC0CCDF854C0072B3FF6A0AD02B0BDEC8F
:1011A000108B04B0BDE8F08F0649074A0868504329
:1011B00043F2390210440860400870470149086052
:1011C000704700002C0100206D4EC64140EA01032B
:1011D0009B0703D009E008C9121F08C0042AFAD2ED
:1011E00003E011F8013B00F8013B521EF9D27047B1
:1011F000D2B201E000F8012B491EFBD27047002259
:10120000F6E710B513460A4604461946FFF7F0FF05
:10121000204610BD421C10F8011B0029FBD1801A8A
:101220007047034611F8012B00F8012B002AF9D171
:10123000184670472DE9F05F0546002092469B4610
:1012400088460646814640241BE0284641464746DC
:10125000224600F020F853465A46C01A914110D356
:1012600011461846224600F039F82D1A67EB01089E
:101270004F4622460120002100F030F817EB00090C
:101280004E41201EA4F10104DFDC484631462A46C7
:101290004346BDE8F09F202A04DB203A21FA02F001
:1012A0000021704721FA02F3D040C2F120029140A0
:1012B0000843194670470000064C074D06E0E068F9
:1012C00040F0010394E8070098471034AC42F6D38D
:1012D000FEF7C4FFCC540008EC540008202A04DBBD
:1012E000203A00FA02F1002070479140C2F1200339
:1012F00020FA03F319439040704770B58C1810F82A
:10130000015B15F0070301D110F8013B2A1106D14A
:1013100010F8012B03E010F8016B01F8016B5B1E64
:10132000F9D12B0705D40023521E0DD401F8013B3F
:10133000FAE710F8013BCB1A921C03E013F8015BAB
:1013400001F8015B521EF9D5A142D8D3002070BD2F
:101350000029816802D041F0010101E021F0010182
:1013600081607047084B10B5D3F8042307490A4041
:10137000D0E900142143D0E9024004432143114342
:10138000C3F8041310BD000000200140E030FCFF52
:101390000029816802D041F4807101E021F480715C
:1013A000816070470029816802D041F4007101E03A
:1013B00021F4007181607047C06C80B270470246B2
:1013C000002012680A4200D00120704730B5426800
:1013D0000F4B0C791A400B6842EA04221343436016
:1013E00082680C4B4D791A40D1E9034323438C6842
:1013F00044EA4504234313438360C26A097D22F40F
:101400007002491EC9B242EA0151C16230BD0000FA
:10141000FFFEFFFCFDF7FFC010B58CB001210420DA
:1014200000F084FD0121080200F0A4FD04200A90D0
:1014300003208DF82C0000248DF82F400AA91648AF
:1014400000F0E6FA06940794089406A80994FFF7BA
:1014500089FF012000940294039404948DF8040001
:101460000E4C8DF805008DF8140069462046FFF7F4
:10147000ADFF032301220C21204600F033F80121A7
:101480002046FFF765FF10212046FFF798FF002850
:10149000F9D00CB010BD000000080240002001404F
:1014A0002DE9F0410E4E0025304600F055F800249D
:1014B0004FF6FF7702213046FFF781FF0028F9D071
:1014C00007EA05153046FFF777FF00F00F00641CB0
:1014D0002844E4B285B2042CECD32846BDE8F08160
:1014E0000020014070B5072409290AD9C568A1F177
:1014F0000A0606EB4606B440A543B3401D43C5604B
:1015000007E0056901EB4106B440A543B3401D4324
:1015100005611F23072A09D2446B521E02EB820287
:1015200093409C4391400C43446370BD0D2A09D203
:10153000046BD21F02EB820293409C4391400C4308
:10154000046370BDC46A0D3A02EB820293409C436F
:1015500091400C43C46270BD816841F0804181605C
:10156000704700000649CA7820B122F0F00040F030
:101570000F0003E022F00F0040F0F000C870704749
:1015800000000020FEE70000F0B59DB042F21076AA
:10159000012188051C9600F0C9FC0121042000F0FF
:1015A000C5FC0121022000F0C1FC01210D022846EA
:1015B00000F0E0FC44480024CDE900404348CDE978
:1015C00002043020CDE90404A800069040000790F2
:1015D0008000CDE908050AA90001012581E8310054
:1015E0003B4F0D94694638460E9400F0D3F9012222
:1015F0001021384600F0B8F938208DF86C008DF8CD
:101600006D408DF86E408DF86F501BA800F052FBB6
:101610000121384600F06CF91C9602E02DA001F083
:10162000F5FB384600F06EF9012803D01C99481EDE
:101630001C90F3D203268DF8586015968DF85B4008
:1016400015A92B4800F0E4F915A92A48159500F0D2
:10165000DFF917941894199417A81A94FFF782FECB
:101660000F94119412941394174C8DF840504C3CE5
:101670008DF841508DF850600FA92046FFF7A6FE67
:101680000323012208212046FFF72CFF0323022217
:101690000B212046FFF726FF03231A460A21204686
:1016A000FFF720FF01212046FFF77CFE01212046A5
:1016B000FFF76EFE01212046FFF74AFE2046FFF7A6
:1016C0004BFF1DB0F0BD00004C2001405801002030
:1016D00010640240444D415F476574436D64537428
:1016E00061747573204552524F520D0A000000007C
:1016F000000802400004024030B500220C4B0D4CA3
:101700001046002101EB410503EB450535F810506B
:10171000491CC9B22A441029F4D30832110924F80B
:101720001010401C0022C0B20328EAD330BD0000D4
:1017300058010020980000200B4BDFED0C0A002020
:1017400003F1600100EB400233F8122000EE102A92
:1017500001EBC002401CB8EE400A80B282EC020AE3
:101760001028EFD37047000058010020000000004F
:1017700010B50849002040F6FF7200BF31F8103064
:1017800040F6E4446343B3FBF2F3401C80B2032809
:10179000F4D310BD9800002010B54FF400510B4851
:1017A00000F097F968B10021094840F6B833428843
:1017B0009A4208D939B1417829B1002141800120EC
:1017C00010BD0121F0E7002010BD0000000802401C
:1017D000A000002010B54FF40051074800F079F93F
:1017E00038B100210548427821EA020202704170B6
:1017F00010BD0121F6E7000000080240A000002013
:101800001CB50121042000F091FB4FF40050009022
:1018100000208DF8040002218DF805108DF80600D7
:101820008DF807106946024800F0F2F81CBD000070
:101830000008024002484188491C4180704700006E
:10184000A000002010B5FFF7F5FFFFF7C3FF0B4C1A
:10185000207828B1A11E0120087009A001F0D6FA55
:10186000FFF79AFF002807D02078002804D1BDE8B0
:10187000104005A001F0CABA10BD0000A000002071
:10188000343434340D0A000034343434206C6F6E38
:10189000670D0A0070B5094C094D2146284600F035
:1018A00039F8002809D0FFF727FFFFF745FF214649
:1018B0002846BDE8704000F005B870BD20800010DB
:1018C00010640240074A904201D2074801E00548EF
:1018D0001038064A8B0001EA020101D5C160704749
:1018E0008160704710640240006002407D0F7D0FF0
:1018F0000029016802D041F0010101E021F001015D
:1019000001607047014600200968C90700D0012026
:101910007047000030B5104A0024904201D20F4BAE
:1019200001E00D4B103B0E4A114205D01E2202EA87
:10193000D12502682A4002E0406900F08002880058
:1019400001D5586800E01868064B1840084201D0DD
:1019500002B10124204630BD106402400060024004
:101960003C0F3C0F7D0F7D0F0B0607D5436912B16D
:1019700043F0800301E023F080034361802908D015
:10198000002A026801F01E0101D00A4300E08A43E8
:101990000260704730B50368124ACC6813400A6889
:1019A0002243D1E905452C432243CC6922430C6AEA
:1019B00022434C6A22438C6A22434C6B22438C6B39
:1019C00022431A430260426922F00703D1E90B2443
:1019D00022431A4342610A6942604A688260896808
:1019E000C16030BD3F801CF07047000010B503F0AF
:1019F00023F9064C2168884207D103F029F9A16830
:101A0000401AE06021690844206110BD14010020E3
:101A1000F0B50023012403270D6804FA03F21540F2
:101A2000954242D1D0F800C05E0007FA06F52CEAD4
:101A3000050CC0F800C091F804C0D0F800E00CFA22
:101A400006FC4CEA0E0CC0F800C091F804C0BCF1D2
:101A5000010F02D0BCF1020F1FD1D0F808C02CEA50
:101A6000050CC0F808C091F805C0D0F808E00CFAE1
:101A700006FC4CEA0E0CC0F808C0D0F804C02CEAF2
:101A8000020CC0F804C0426891F806C00CFA03FCCE
:101A90001FFA8CFC42EA0C024260C268AA43C26090
:101AA000CA79C568B2402A43C2605B1C102BB3D30D
:101AB000F0BD4B07DB0E9A40C90810B500EB810062
:101AC000016A0F249C40A1430162016A1143016233
:101AD00010BD0246002012690A4200D00120704762
:101AE0004FF6FF7101600021017141718171C17177
:101AF000704742694A4042617047000070B588B043
:101B0000012000F0B9FA612000F09CFA0028FAD018
:101B10000121082000F016FA244E4021304600F042
:101B200068FF01220021304600F060FF0C200125F3
:101B3000ADF800000024ADF80450ADF80600ADF893
:101B40000240ADF808406946304600F039FE3220C8
:101B50008DF81C008DF81D408DF81E408DF81F502B
:101B600007A800F0A7F80121304600F056FD0F4805
:101B70001030048001221021304600F077FE0C4C1A
:101B800020690228FCD1304600F05CFD03A800F07B
:101B900011FA0848006810F4E05F059800D0400092
:101BA000616908B0B0FBF1F0C00070BD000C0040EE
:101BB0000000002008380240FEE7000010B57D203C
:101BC00000F040FA08B100F0EDF9FFF797FF0B4C79
:101BD000E06045F2555000F02FF8032000F020F8A7
:101BE000E0686B21B0FBF1F080B200F01FF800F06C
:101BF0000FF8BDE8104000F003B80000000000201E
:101C000002494CF6CC4008607047000000300040AC
:101C100002494AF6AA2008607047000000300040E0
:101C20000149486070470000003000400149886069
:101C30007047000000300040014908607047000014
:101C4000003000401CB50121084600F06FF900206B
:101C50008DF8060001208DF807008DF80400202083
:101C6000009002208DF8050069460248FFF7D0FE7B
:101C70001CBD000000000240FEE700001CB5012171
:101C8000022000F053F93120009001208DF804006B
:101C900003218DF8051000218DF806108DF807003E
:101CA00069460248FFF7B4FE1CBD00000004024074
:101CB0007047000030B50F22C47801780123FCB1D1
:101CC000144C246801F1E02104F4E064C4F5E064FC
:101CD000C4F30724C4F10405E2404478AC4085789D
:101CE000154025432A0181F80024007800F01F01E7
:101CF0008B404009800000F1E020C0F8003130BD89
:101D000001F01F0083404809800000F1E020C0F886
:101D1000803130BD0CED00E0024908430249086003
:101D2000704700000000FA050CED00E0F0B585B04A
:101D30000121022000F0FAF803A8FFF7D1FE4020AD
:101D4000039002208DF810008DF811000024264E1B
:101D50008DF8124001258DF8135003A93046FFF786
:101D600057FE022206213046FFF7A3FE0121042080
:101D700000F0E8F81D481E490068B0FBF1F0401E75
:101D800087B2781E00EB8000C0006421B0FBF1F048
:101D900086B2684600F096FE0197ADF8004020201C
:101DA000144FADF80200ADF808408DF80A506946AE
:101DB000384600F049FE104800F00EFE0E48602143
:101DC000018045808481048201468660384600F0A7
:101DD000CDFD0121384600F020FC0021384600F0FE
:101DE00026FC05B0F0BD0000000402408000002089
:101DF000E0280100000800404401002070B5114CAB
:101E00002189481C20811048142915D30F49054603
:101E100000F0ACFD0821284600F0D8FD012128463D
:101E200000F005FC6089401C80B26081032802D369
:101E300000202081608170BDBDE87040402100F02D
:101E4000A9BC000000000020000800404401002060
:101E50002DE9F041012186B0084600F067F84FF403
:101E60008070022503908DF8105003208DF811002A
:101E70000024294E8DF812408DF8135003A93046E6
:101E8000FFF7C6FD012200213046FFF712FE23486E
:101E900042F21071224F0068B0FBF1F0401EF8636F
:101EA000401E00EB80000A21B0FBF1F086B2012158
:101EB000084600F05FF8ADF800402020ADF80200C1
:101EC000F86BDFF860800190ADF8084001278DF8CD
:101ED0000A706946404600F0B7FD13487021018042
:101EE00047800421818085810821C1810482448248
:101EF00001468660404600F039FD0121404600F071
:101F00007FFB0121404600F088FB0121404600F0A4
:101F10008EFB06B0BDE8F08100000240800000208A
:101F2000000000200000014030010020044A002988
:101F3000116801D0014300E0814311607047000047
:101F400030380240044A0029116801D0014300E002
:101F5000814311607047000040380240044A002964
:101F6000116801D0014300E0814311607047000017
:101F700020380240044A0029116801D0014300E0E2
:101F8000814311607047000044380240044A002930
:101F9000116801D0014300E08143116070470000E7
:101FA000243802400248016841F0807101607047A6
:101FB0007438024070B5204A1168204C11F00C01B1
:101FC00004D06610042903D0082903D004601BE064
:101FD000066019E01849091F0B68C3F380550B68A8
:101FE00003F03F0315B1B6FBF3F301E0B4FBF3F3E9
:101FF0000C680968C4F388146343C1F30141491CA8
:102000004900B3FBF1F1016011680F2303EA1111DC
:102010000B4B5C5C0168E14041601468072505EAF0
:1020200094241C5D21FA04F48460126805EA52329B
:102030009A5CD140C16070BD083802400024F400B1
:10204000A400002002460020510901290BD00229DA
:102050000CD00849096802F01F02012393400B428B
:1020600000D00120704703497439F3E70149091F83
:10207000F0E7000074380240014908607047000032
:10208000800E4742034A116821F4E0510143116078
:10209000704700000838024010B524220249FFF7BB
:1020A00095F8002010BD000050000020017869B1B3
:1020B000012912D0022908D1416964314161816945
:1020C00064318161C1696431C16170474168491CF3
:1020D00041608168491C81607047C1680A31C160F4
:1020E00001690A31016170470CB500222D48019247
:1020F0000092016841F4803101604FF4A04301680F
:1021000001F4003100910199491C0191009911B924
:1021100001999942F3D101688B0323493FD50122EC
:102120000092214A3832136843F0805313601F4AEB
:10213000136843F4404313600A680A600A680A603F
:102140000A6842F480520A600B1F194A1A6002683A
:1021500042F08072026002689201FCD5154B40F299
:1021600002721A600A6822F003020A600A6842F0EA
:1021700002020A600A68C2F38102022AFAD10A68DE
:1021800022F400020A60084A0B497C32116001689F
:1021900041F08061016001680901FCD50CBD00922D
:1021A000EDE70000003802400838024000700040AF
:1021B00008544107003C02408040003010B502F056
:1021C0003BFD044C2168884202D102F041FDA06031
:1021D00010BD0000140100201FB56846FFF7EAFE9D
:1021E00002F0FCF93FA000F011FE4648002000BFBD
:1021F00002F026FE02F0F2F943A246A148A000F048
:1022000005FE4048002000BF02F01AFE02F0E6F989
:10221000494A4AA0114600F0F9FD3A48002000BFA3
:1022200002F00EFE02F0DAF949A0009900F0EEFD8E
:102230003448002000BF02F003FE02F0CFF94BA0AB
:10224000019900F0E3FD2F48002000BF02F0F8FDE7
:1022500002F0C4F949A0029900F0D8FD29480020F5
:1022600000BF02F0EDFD02F0B9F948A0039900F0BB
:10227000CDFD2448002000BF02F0E2FD7D20FFF7E5
:10228000E1FE58B1FFF78EFE02F0A8F943A000F07E
:10229000BDFD1C48002000BF02F0D2FD7B20FFF7EF
:1022A000D1FE28B1FFF77EFE02F098F940A008E0C9
:1022B0007C20FFF7C7FE60B1FFF774FE02F08EF9D5
:1022C00040A000F0A3FD0F48002000BF02F0B8FDC1
:1022D0001FBD7920FFF7B6FE0028F9D002F07EF985
:1022E0003DA0EEE73D3D3D3D3D3D3D3D3D3D3D3D60
:1022F0003D3D3D3D3D3D3D3D3D3D3D3D3D3D3D0D3E
:102300000A000000940000204F6374203331203213
:102310003031360031353A31313A33350000000082
:10232000436F6D70696C6564206F6E20257320614A
:10233000742025730A000000B453000846756E63CC
:1023400074696F6E203D2025732C25730A000000F0
:10235000535953434C4B5F4672657175656E637993
:10236000203D20256420487A0A0D00004148422083
:102370003D20256420487A0A0D000000415042317A
:10238000203D20256420487A0A0D00004150423249
:10239000203D20256420487A0A0D00005243435F07
:1023A000464C41475F495744475253540D0A000079
:1023B0005243435F464C41475F504F525253540D76
:1023C0000A0000005243435F464C41475F53465466
:1023D0005253540D0A0000005243435F464C41479C
:1023E0005F424F525253540D0A00000010B5502066
:1023F00080F31188BFF34F8FBFF36F8F02F030FC73
:1024000018B104494FF080500860002080F3118813
:1024100010BD000004ED00E0124810B5016841F461
:10242000700101601048016841F0010101600E4A2D
:1024300000210832116002680C4B1A400260031D33
:102440000B4A1A60026822F48022026006480C30AF
:102450000160FFF749FE03494FF0006080390860D2
:1024600010BD000088ED00E000380240FFFFF6FEDE
:102470001030002470B5048C24F001040484058B12
:10248000048C4FF6FF7606EA0313134325F0F30599
:102490002B4324F00A020A4342F001010383018422
:1024A00070BDF0B5048C24F010040484078B068CF6
:1024B0004FF6FF7404EA011527F4734704EA033169
:1024C000394304EA02220A4326F0A001294341F0DD
:1024D000100102830184F0BD10B5084C0421204690
:1024E00000F062F9012807D10421204600F092F89B
:1024F000BDE8104000F00CBA10BD00000000014023
:102500007FB54FF48050FFF7BDFD01210220FFF79A
:1025100019FD41F6573001900B20ADF80000002462
:102520000F4DADF80840ADF802406946284600F06E
:102530008BFA01221146284600F098F9012128461D
:1025400000F06BF81D208DF80C008DF80D408DF813
:102550000E4001208DF80F0003A8FFF7ABFB7FBDF5
:102560000004004010B50D4C0121204600F01CF97C
:10257000002811D000F0B0FA09490A88501C0880E0
:10258000C82A03D300200880FFF742FB2046BDE89D
:102590001040012100F03EB810BD000000040040D2
:1025A0007400002070B5124E1021304600F0FCF887
:1025B00000281BD0304600F0F5F80E4D29680E4C6F
:1025C00004EB4102491C296010801021304600F0C4
:1025D00021F82868022809D320884FF6FF72618805
:1025E000101A401C0844054980B2086070BD000004
:1025F000000C004010000020760000201400002095
:102600000029818802D041F0010101E021F001019F
:1026100081807047C943018270470029018802D038
:1026200041F0010101E021F0010101807047002922
:1026300030F8441F02D041F4004101E0C1F30E0123
:1026400001807047464910B5884206D101210846ED
:10265000FFF79CFC002101205BE0B0F1804F09D026
:10266000404988420DD101210220FFF777FC00216B
:10267000022070E001210846FFF770FC00210120D4
:1026800069E03949884206D101210420FFF766FC40
:10269000002104205FE03549884206D1012108204D
:1026A000FFF75CFC0021082055E03149884206D143
:1026B00001211020FFF752FC002110204BE02D4992
:1026C000884206D101212020FFF748FC002120206C
:1026D00041E02949884206D101210220FFF756FC3A
:1026E0000021022015E02549884202D101210C0475
:1026F0000AE02349884202D101214C0404E0214927
:1027000088420AD101218C042046FFF73FFC0021BA
:102710002046BDE81040FFF739BC1B49884206D16E
:1027200001214020FFF71AFC0021402013E0174947
:10273000884206D101218020FFF710FC0021802073
:1027400009E0134988420AD1841501212046FFF788
:1027500005FC00212046BDE81040FFF7FFBB10BD7F
:10276000000001400004004000080040000C004050
:1027700000100040001400400004014000400140EF
:10278000004401400048014000180040001C004087
:1027900000200040028B22F070020A43028370473F
:1027A000806B7047006C704702460020138A928944
:1027B0000B4202EA010202D0002A00D00120704739
:1027C0002DE9F0410D460E884988AA882B890446D8
:1027D00016B3042E28D0082E268C4FF6FF702BD06F
:1027E00026F480562684A78B268C00EA022200EA73
:1027F000013127F473473A4300EA0330104326F4CB
:1028000020420A4342F48051A0832184E988204673
:10281000BDE8F04100F00CB9FFF72CFEE988204636
:10282000BDE8F04100F0E8B8FFF73BFEE98820463C
:10283000BDE8F04100F0E8B826F480762684A78B46
:10284000268C00EA012100EA0310104327F0F30769
:10285000384326F420620A4342F48071A083218425
:10286000E9882046BDE8F04100F0DAB8002A828904
:1028700001D00A4300E08A438281704730B50121CC
:1028800087B00846FFF75EFB01210846FFF74EFBC5
:10289000022003908DF8100003208DF81100002411
:1028A0001A4D8DF812408DF8134003A92846FFF702
:1028B000AFF8012211462846FFF7FBF81C208DF8DF
:1028C00014008DF8154001258DF816508DF817501D
:1028D00005A8FFF7EFF90420ADF80000ADF80450AB
:1028E000ADF80240ADF80640ADF80840040769466F
:1028F0002046FFF765FF01212046FFF78EFE0122EB
:1029000004212046FFF7B2FF07B030BD00000240AF
:1029100010B5134C1348216B59B101290ED1FFF7A3
:102920003FFFE062A16A0022884208D9A0EB0100C3
:102930000BE0FFF735FFA0620120206310BD06D237
:102940004FF6FF73A3EB01010844606300E062638C
:102950000548616B00682263B0FBF1F0A06310BD15
:1029600000000020000001408000002030B5028CF3
:1029700022F001020284028C8388048B22F002027E
:1029800024F073050C882C438D8915434A882A430B
:102990000C4DA84202D00C4DA8420DD122F00805E2
:1029A000CA8923F440732A4322F004058A882A4303
:1029B0000D8A1D434B8A2B438380048389684163BE
:1029C000028430BD0000014000040140028B22F06F
:1029D00008020A4302837047002101804180818000
:1029E00081608181C181018241827047018582823B
:1029F0007047A0F850107047028B22F00C0202833F
:102A0000028B0A4302837047028B22F440620283E6
:102A1000028B4FF6FF7303EA01210A4302837047DA
:102A2000828B22F00C028283828B0A43828370475E
:102A3000828B22F440628283828B4FF6FF7303EA1B
:102A400001210A438283704730B50288164B174C28
:102A500098420DD0A0420BD0B0F1804F08D0144D59
:102A6000A84205D0134DA84202D0134DA84203D16D
:102A700022F070054A882A43104DA84206D0104D16
:102A8000A84203D022F440750A892A4302804A688A
:102A9000C2620A880285984201D0A04201D1897A97
:102AA00001860121818230BD000001400004014007
:102AB0000004004000080040000C004000100040EE
:102AC000001400404FF0FF3141600021018001817E
:102AD00041808172704700000348416C002902D098
:102AE000416C491E416470470000002070B51B4CCA
:102AF00000201B4E40F22555A0602946304600F0CC
:102B0000CCF8002828D02946304600F03DF8154D75
:102B1000287888B9304600F04DF9134E307001F036
:102B20005DFD317811A000F071F91448002000BF5C
:102B300002F086F901202870114808490831006820
:102B400001F0CAFFA068012806D10E4900070860FD
:102B5000BFF34F8FBFF36F8F70BD00007400002074
:102B600000440040010000200000002074656D70EA
:102B7000203D2030782578200A0D000094000020A8
:102B80004C00002004ED00E00A0A01219140C943F5
:102B9000018070470029818902D041F4005101E091
:102BA00021F4005181817047F0B5012187B00846BA
:102BB000FFF7BCF901214804FFF7C4F92F4F0722A2
:102BC00002213846FEF775FF072203213846FEF73B
:102BD00070FF00248DF8064001268DF8076002255D
:102BE00004208DF8045000908DF805506946384651
:102BF000FEF70EFF082000908DF804506946384615
:102C0000FEF706FF4FF4E1300290ADF810400C20C3
:102C10001B4DADF80C40ADF81200ADF80E40ADF80C
:102C2000144002A9284600F06FF8012240F2255115
:102C3000284600F051F84021284600F027F80028E7
:102C4000F9D026208DF818008DF819408DF81A401B
:102C50008DF81B6006A8FFF72DF801212846FFF725
:102C600099FF01F0BBFC074800F0D0F806480020AF
:102C700000BF02F0E5F807B0F0BD00000000024020
:102C8000004400407C5400089400002002460020CC
:102C900012880A4200D00120704730B501F01F02AF
:102CA00001240025C1F3421304FA02F2012B0FD0D4
:102CB000022B0FD0838A4FEA11210088134204FAB5
:102CC00001F400EA040001D000B10125284630BD1E
:102CD0008389F0E7038AEEE710B5C1F3421301F0F0
:102CE0001F040121A140012B07D0022B07D0143073
:102CF000002A026805D00A4304E00C30F8E71030DF
:102D0000F6E78A43026010BD7FB50446008A0D468F
:102D100020F44051E88808432082A08941F20C61E8
:102D20008843A9882A8911436A8902431143A181F2
:102D3000A08A20F44071A8890843A0826846FFF762
:102D400039F91A48844202D01948844201D10398C3
:102D500000E00298A189090400EBC00101EB00101A
:102D6000296801D5490000E08900B0FBF1F2642038
:102D7000B2FBF0F109010B096FF018056B4302EB90
:102D80008302A3891D044FF0320306D503EBC20270
:102D9000B2FBF0F000F0070005E003EB0212B2FB1B
:102DA000F0F000F00F00084320817FBD00100140CB
:102DB000001401408088C0F308007047C1F3080187
:102DC000818070470D484178002909D002780021A0
:102DD000312A04D05A2A04D07A2A02D04170417094
:102DE0007047BFF34F8F06480168064A01F4E0615F
:102DF00011430160BFF34F8FFEE700000000002089
:102E00000CED00E00400FA05FEE700000FB4054BEE
:102E100010B503A9044A029800F02CF810BC5DF824
:102E200014FB000049330008940000200FB4084B45
:102E300010B504A902AA039800F01CF8044602A9E0
:102E4000002000F048FA204610BC5DF814FB00009A
:102E5000D732000802E008C8121F08C1002AFAD1C0
:102E600070477047002001E001C1121F002AFBD10A
:102E7000704700002DE9FF4F8DB00F460546002634
:102E800006E025280BD0DDE90F1290476D1C761C5B
:102E900028780028F5D111B03046BDE8F08F002425
:102EA000A246A1460122EC4900E0044315F8013F87
:102EB000203B02FA03F00842F7D128782A2810D0E4
:102EC0006FF02F022878A0F13001092914D80AEBFD
:102ED0008A0102EB410144F0020400EB010A6D1C7F
:102EE000F0E701CF5FEA000A03D544F40054CAF1C9
:102EF000000A44F002046D1C28782E2817D115F81A
:102F0000010F44F004042A280ED06FF02F02287815
:102F1000A0F1300109290AD809EB890102EB41012E
:102F200000EB01096D1CF2E757F8049B6D1C287833
:102F30006C280FD006DC4C2817D068280DD06A28E2
:102F400014D104E0742810D07A280FD10DE044F495
:102F500000140AE044F4801401E044F44014697859
:102F6000814202D104F580146D1C6D1C2A786E2AF2
:102F70001FD00CDC632A31D004DC002A8BD0582A05
:102F800011D1A3E0642A68D0692A0CD165E0732AC4
:102F90002ED004DC6F2A73D0702A04D19BE0752AEE
:102FA0006FD0782A6ED01046DDE90F129047761C5C
:102FB00050E1C4F30250022806D0032809D00428A7
:102FC00001CF09D0066045E101CFF117C0E90061EA
:102FD00040E101CF06803DE106703BE117F8040BAC
:102FE0008DF8000000208DF80100EB46012003E081
:102FF00057F804BB4FF0FF3061074FF0000102D4D7
:103000000DE008F10101884649450FDA8045F8DBFB
:103010001BF808100029F4D108E008F101018846E6
:103020008142FADB1BF808100029F6D1DDE90F23F5
:10303000AAEB08008146214600F036F9304400EB47
:10304000080604E0DDE90F121BF8010B9047B8F108
:103050000108F7D221464846F7E00A21C4F302539B
:103060004FF0000B0891022B04D001CFC117032BA6
:1030700009D00AE0FF1D27F00707F7E8020108E082
:1030800032E01FE020E000B2C117042B01D140B2B2
:10309000C117031E71F1000307DA4FF0000CD0EBEB
:1030A0000C006CEB01012D2302E0230504D52B233A
:1030B0008DF82430012303E0E30701D02023F7E754
:1030C000984658E00A2110E010210EE010204FF041
:1030D000000B08900CE010214FF0000B44F00404AA
:1030E0004FF00809089103E008214FF0000B089108
:1030F000C4F30253022B04D001CF0021032B06D0CE
:1031000006E0FF1D27F00707F7E8020103E080B2A1
:10311000042B00D1C0B24FF0000823072BD5702A32
:1031200007D0DDF820C08CF0100C5CEA0B0C05D049
:103130000EE040238DF82430012308E050EA01031B
:1031400006D030238DF824308DF8252002239846B0
:10315000DDF820C08CF0080C5CEA0B0C0BD150EAB7
:10316000010301D1630706D530238DF824304FF0D9
:103170000108A9F10109582A04D038A20B9208AA23
:103180000A920BE03AA2F9E75B46089AFEF752F87A
:103190000B9B9B5C0A9A521E0A92137050EA010222
:1031A000F2D10A98ADEB000000F1200B600702D5C8
:1031B00024F4803401E04FF00109D94502DDA9EB88
:1031C0000B0000E0002000EB0B0141440890AAEB4B
:1031D000010AE00306D4DDE90F232146504600F042
:1031E00063F806444FF0000908E009A911F8090046
:1031F000DDE90F12904709F10109761CC145F4DBA6
:10320000E0030CD5DDE90F232146504600F04CF8D1
:10321000064404E0DDE90F1230209047761C08993F
:10322000481E08900029F5DC08E00A980A99007801
:10323000491C0A91DDE90F129047761CBBF1000191
:10324000ABF1010BF1DC21465046DDE90F2300F024
:1032500019F806446D1C1BE6092801003031323391
:1032600034353637383961626364656600000000C2
:1032700030313233343536373839414243444546AC
:10328000000000002DE9F041044600251E461746C7
:10329000880404D405E039462020B0476D1C641E24
:1032A000F9D52846BDE8F0812DE9F0410446002516
:1032B0001E469046C80301D5302700E02027880429
:1032C00004D505E041463846B0476D1C641EF9D56B
:1032D0002846BDE8F0810A68531C0B6010707047E7
:1032E00070B5040005D0164E3068844209D1002024
:1032F00070BD502080F31188BFF34F8FBFF36F8FE5
:10330000FEE700F027FD656900F044FD706B854223
:1033100002D0B06B854201D1022070BD09488542C0
:1033200004D1A06A0028F7D1032070BD05481438E5
:10333000854202D00DB1012070BD042070BD000097
:10334000B40000202C03002070B5074D0446C1B224
:103350002846FFF733FD40212846FFF797FC002859
:10336000F9D0204670BD00000044004010B5032293
:103370000021012001F0F8F9134CE06420B1002392
:103380001A46194601F006FB00230A221946E06C92
:1033900001F014FAFFF708FCFEF71EFFFEF70EFC23
:1033A000FFF7AEF8FEF74EFCFEF7EEF8FEF750FD25
:1033B000FFF764FAFEF730F8FEF722FAFEF7B6FCE4
:1033C000BDE81040FEF75ABC000000201CB54FF4C9
:1033D0004070FEF7A1FCFFF7C9FF002400942346CC
:1033E000802238A13B48019401F0FAFB00940023AD
:1033F000802239A13C48019401F0F2FB00940023A3
:1034000080223AA13D48019401F0EAFB0094002398
:1034100080223BA13E48019401F0E2FB009400238E
:1034200080223CA13E48019401F0DAFB0094002385
:1034300080223CA13E48019401F0D2FB009400237D
:103440004FF400623BA13F48019401F0C9FB009496
:10345000002380223CA13F48019401F0C1FB00946D
:10346000002380223CA13F48019401F0B9FB009465
:10347000002380223CA14048019401F0B1FB00945C
:10348000002380223DA14148019401F0A9FB009452
:10349000002380223EA14248019401F0A1FB009448
:1034A000002380223FA14448019401F099FB00943D
:1034B0000023802241A14548019401F091FB01F0D5
:1034C00059F8FEE7765461736B496E697455617201
:1034D000740000008D3E0008765461736B314C6FB0
:1034E000674D736700000000D53F00087654617394
:1034F0006B32526973696E6700000000514000082A
:10350000765461736B33437265617465000000002B
:1035100091400008765461736B3453656E6400000B
:10352000C9400008765461736B35526563760000BC
:103530002D410008765461736B365461736B6C696E
:103540007374000055410008765461736B37414431
:10355000430000007B410008765461736B3850577C
:103560004D000000A1410008765461736B31304179
:103570004443464654000000D53E0008765461732B
:103580006B313141444352414E4400002D3F00080D
:10359000765461736B3132427574746F6E00000043
:1035A000593F0008765461736B31334D6F64756C0D
:1035B0006174696F6E0000007D3F0008765461738E
:1035C0006B3134426974466C61670000A13F0008AA
:1035D0002DE9F041184C0F460546E6682068001DAD
:1035E00000F0E8FA38B9206890F82C1001208840E3
:1035F000216981432161681C07D137B12168BDE889
:10360000F0410E48091D00F099BB20683544B542D1
:103610004560216805D2A06BBDE8F041091D00F0AE
:1036200075BB606B091D00F071FBA06A854200D27A
:10363000A562BDE8F0810000B40000202C0300204A
:103640002DE9F041054600F085FB2E4CA068401C9A
:10365000A06020682C4F10B1606940B32DE0256058
:10366000A068012829D1002606EB860007EB800020
:1036700000F03EFB761C052EF6D32348643000F0A4
:1036800037FB2148783000F033FB1F488C3000F0C6
:103690002FFB1D48A03000F02BFB1B48B43000F07E
:1036A00027FB1948643060631430A06305E020688C
:1036B000E96AC06A884200D82560606A401C60627E
:1036C0006864E96A0120226988401043206101EBA7
:1036D000810007EB8000291D00F030FB00F05AFB51
:1036E000606900280CD02068E96AC06A884207D265
:1036F00006494FF080500860BFF34F8FBFF36F8FC4
:10370000BDE8F081B40000207802002004ED00E064
:1037100070B5114E114C17E000F060FF3068B8B181
:1037200001F08EFB00F016FBF068C568281D00F064
:1037300041FAA068401EA0606068401E606000F012
:1037400029FB284600F055F860680028E4D170BDD8
:1037500001F076FBF8E7000018030020B400002019
:1037600030B4026C0B46002A0BD0C1681144C16012
:103770004468A14201D30168C16030BC1846FDF71E
:1037800025BD30BC70472DE9F041856B17460446D6
:103790000026026C82B1C7B1E068FDF717FDE16851
:1037A000206C091AE1602268914202D26168081A0D
:1037B000E060022F16D017E02068A8B9606801F019
:1037C000B9FA0646002060600EE0A068FDF7FEFC36
:1037D000216CA0680844A0606168884204D3206816
:1037E000A06001E005B16D1E6D1CA5633046BDE80B
:1037F000F08110B50446006B00F0E0FA2046BDE809
:10380000104000F0DBBA000010484FF4404142077E
:1038100006D0C01D0D4920F00700411AC1F54041F6
:103820000B4A00230144C2E900030839103A21F091
:10383000070111604B600B600B1AC0E90013936025
:103840004FF000405360D0607047000040030020FC
:103850000C010020084C4FF08056084DFFF758FF30
:103860002068012804D92E60BFF34F8FBFF36F8FFC
:1038700000F006FAF2E700007802002004ED00E014
:103880002DE9F0470E46DDE909841746824691008E
:103890009946089DA522206BFDF7AAFC6FF0030155
:1038A000206B01EB8701084420F00707780707D059
:1038B000502080F31188BFF34F8FBFF36F8FFEE767
:1038C0002218315C82F83410315C11B1401C102890
:1038D000F6D3002684F84360052D00D30425E56265
:1038E000C4E91356201D00F00EFA04F1180000F090
:1038F0000AFA2461C5F105006462A061666584F876
:1039000058604A465146384600F03EF92060B8F10A
:10391000000F01D0C8F80040BDE8F08730B511496C
:1039200000E011460A688242FBD34B685C1884426F
:1039300003D1406818444860084643681C18944204
:1039400009D1084C103C2468A24209D052681A449C
:1039500042600A6812680260814200D0086030BD8F
:103960000460F9E70C01002010B5044600F0F2F9FC
:10397000A06B28B15FF0000400F00CFA204610BDE7
:103980000124F9E72DE9F0478146086892460C4684
:10399000002600B3606804F1080540686060A84232
:1039A00001D1416861606068D0F80C80606840684F
:1039B0006060A84201D141686160606806EBC601A1
:1039C00009EB8101C76853460122384600F0B6FC76
:1039D000761C4745EAD13046BDE8F0870648416B82
:1039E000096829B1416BC968C96849688162704733
:1039F0004FF0FF31FAE70000B400002008484068AB
:103A0000401C4FF0500080F3118804D0BFF34F8F5B
:103A1000BFF36F8FFEE7BFF34F8FBFF36F8FFEE7EC
:103A2000F00000202DE9F041044600F093F994F9EC
:103A3000455004F1240609E0606A48B1304601F0BF
:103A4000C5F908B100F024FD6D1E6DB2002DF3DC48
:103A50004FF0FF3684F8456000F09CF900F07AF9E9
:103A600094F9445004F1100709E0206948B1384640
:103A700001F0ACF908B100F00BFD6D1E6DB2002D28
:103A8000F3DC84F84460BDE8F04100F083B9000045
:103A90002DE9F0410546002700F0A0FD334E3068C7
:103AA00008B9FFF7B1FEF068054216D1ADB108358F
:103AB00068070ED005F00700C0F10800054468074C
:103AC00007D0502080F31188BFF34F8FBFF36F8F63
:103AD000FEE715B17068854202D901F0B1F936E010
:103AE0002248103001460C6801E020460C4661680F
:103AF000A94202D221680029F7D131688C42ECD06A
:103B000007682168016060680837411B10290ED9D9
:103B10006019420707D0502080F31188BFF34F8F00
:103B2000BFF36F8FFEE741606560FFF7F7FE6168E6
:103B30007068401A7060B268904200D2B060F0685D
:103B400001430020C4E9000101F07AF90FB900F047
:103B5000A3F8780707D0502080F31188BFF34F8F68
:103B6000BFF36F8FFEE73846BDE8F081FC00002010
:103B70000449086818B10868026D521C026508689B
:103B800070470000B400002010B5031F4FF0807490
:103B90001C601B1F21F001011960191F044B0B60F1
:103BA00014390A60091F6FF0020244380A6010BD20
:103BB000FD390008D0E9013201699A60D0E901239A
:103BC0005A604A68824201D182684A6000220261DA
:103BD0000868401E086070472DE9F04717460A46FE
:103BE00005460024052600F0F9FCDFF88C80D8F8A3
:103BF000080082423BD3DFF88490761E06EB8601F4
:103C000004EBC40009EB810105EB80000122FFF702
:103C1000B9FE0444002EF0D104EBC40005EB800093
:103C200002224646D8F83410FFF7ACFE044404EBF9
:103C3000C40005EB80000222B16BFFF7A3FE044431
:103C40000E4904EBC40005EB80000422A031FFF70D
:103C500099FE0444094904EBC40005EB80000322EB
:103C6000B431FFF78FFE04440FB10020386001F03B
:103C7000E7F82046BDE8F087B40000207802002075
:103C800010B5044C2068002802D100F0D5FF206058
:103C900010BD000014010020502080F31188BFF3F4
:103CA0004F8FBFF36F8FFEE7502080F31188BFF373
:103CB0004F8FBFF36F8FFEE70C4810B54269511C60
:103CC00041614FF47A718A420EDD0022426103693C
:103CD0008B4200D90161036964246343B3FBF1F1B2
:103CE000C1F164014160026110BD000014010020B7
:103CF00000F108014FF0FF32C0E90112C16001611B
:103D000000210160704700210161704730B50B68E8
:103D10005A1C02D000F1080202E0026904E02246C7
:103D2000546825689D42FAD953684B6099608A604F
:103D3000516008610168491C016030BD42684A60F9
:103D400093688B6093685960916008610168491CB1
:103D500001607047502080F31188BFF34F8FBFF38D
:103D60006F8F0A494868401C486001280CD10848F8
:103D7000006810F0FF0F07D0502080F31188BFF3C8
:103D80004F8FBFF36F8FFEE770470000F0000020F9
:103D900004ED00E00849486828B1401E486001D1A0
:103DA00080F311887047502080F31188BFF34F8F44
:103DB000BFF36F8FFEE70000F000002070B5002811
:103DC00027D0144DA0F108046168E868014207D1CA
:103DD000502080F31188BFF34F8FBFF36F8FFEE742
:103DE00022683AB1502080F31188BFF34F8FBFF3A0
:103DF0006F8FFEE78143616000F0F0FB60686968E7
:103E0000084468602046FFF789FDBDE8704001F076
:103E100017B870BDFC00002006484FF47A710068A6
:103E2000B0FBF1F14FF0E020491E41610721016133
:103E3000704700008000002010B5FCF76DFA1149B2
:103E400010280ED300F1E02090F8F0030A78904299
:103E500007D2502080F31188BFF34F8FBFF36F8FCD
:103E6000FEE709480068896800F4E060884207D9E5
:103E7000502080F31188BFF34F8FBFF36F8FFEE7A1
:103E800010BD0000F00000200CED00E008B5012599
:103E900000F0D8FE0E4C002300901A461946E06C44
:103EA00000F08CFC4FF47A7015FB00F506464FF0DD
:103EB000FF3700BFB5FBF6F1684600F0A3F9002319
:103EC0003A461946E06C00F079FCFEF77BFFF1E71B
:103ED000000000201FB54FF4FA7400F0B3FE00900C
:103EE000600014FB00F40546B4FBF5F1684600F0F1
:103EF00089F9012300220A490A48FCF78DFD1022A6
:103F000009490748FCF71EFA02AB01AA102106482E
:103F1000FCF728FE03AA10210348FCF78FFEE3E715
:103F2000B8010020C45300083802002008B54FF43F
:103F3000FA7400F087FE0090600014FB00F4054660
:103F4000B4FBF5F1684600F05DF9FDF7A9FAFDF75D
:103F500035F9FDF729F9F3E708B5012400F072FE01
:103F600000904FF47A7014FB00F40546B4FBF5F1B1
:103F7000684600F047F9FDF765FCF7E708B501244E
:103F800000F060FE00904FF47A7014FB00F40546D8
:103F9000B4FBF5F1684600F035F9FDF72FFFF7E7C0
:103FA00008B54FF47A7400F04DFE0090204614FBE3
:103FB00000F6074DB6FBF4F1684600F023F92879C6
:103FC00040F30000401C2871FDF7CCFAF2E7000036
:103FD0000000002008B54FF47A7400F033FE009022
:103FE000204614FB00F60F4F0F4D00BFB6FBF4F157
:103FF000684600F007F920213846FDF77AFD00F009
:10400000EDFA00F03BFBEA690346521C214607A08B
:10401000EA61FEF7FBFE0D48002000BF00F010FF34
:10402000E4E700000000024000000020313A4C6F3D
:1040300067282534646D73293A2534642028256463
:10404000206279746573290D0A0000009400002035
:1040500008B54FF4FA7400F0F5FD0090600014FB11
:1040600000F4054F05460126B4FBF5F1684600F063
:10407000C9F8BE70F8E7000000000020034C0025DE
:10408000A570A06C00F004F9FAE700000000002021
:104090001CB5084C012504F14806A0780028FCD086
:1040A000CDE900560023402203A1064800F098FD08
:1040B000F3E7000000000020765461736B33537502
:1040C000620000007D40000808B54FF4FA7400F06B
:1040D000B9FD0090600014FB00F6134D0746032461
:1040E00005F15008B6FBF7F1684600F08BF8A869B7
:1040F000401CB0FBF4F104FB1101A86161B1B0FBFD
:10410000F4F104FB1101012906D0B0FBF4F104FB2A
:1041100011000228E6D10221034888F8001024216A
:104120005030FDF7C3FFDDE7000000208AB04FF4F8
:10413000FA7400F087FD0990600014FB00F4054656
:10414000B4FBF5F109A800F05DF824216846FDF7FD
:10415000A3FFF5E7ADF5027D4FF47A7400F072FD30
:104160008090204614FB00F5B5FBF4F180A800F028
:1041700049F8684600F024F9F6E708B5642400F031
:1041800061FD00904FF47A7014FB00F40546B4FB17
:10419000F5F1684600F036F8FDF7EAFAF7E70000B7
:1041A00008B5012400F04EFD00904FF47A7014FB26
:1041B00000F5104F104CDFF84490DFF844A006469D
:1041C0004FF06408B5FBF6F1684600F01BF838883C
:1041D00064214843000B2064E16B491E4843B0FB57
:1041E000F8F081B2C9F8081004495046FEF7BEFB4A
:1041F000E8E70000980000200000002030010020C7
:104200000000014070B50D4604000BD095B11E4A68
:10421000106BB8B1502080F31188BFF34F8FBFF3FC
:104220006F8FFEE7502080F31188BFF34F8FBFF3ED
:104230006F8FFEE7502080F31188BFF34F8FBFF3DD
:104240006F8FFEE700F0CAF9D268236859199342CC
:1042500004D98B420AD9914202D807E08B42FAD99D
:10426000881A21600021FFF7B3F900E0216000F017
:10427000E7FD002807D105494FF080500860BFF3E3
:104280004F8FBFF36F8F70BDB400002004ED00E0CE
:1042900070B50546FFF75EFD254C05B92568281D5C
:1042A000FFF788FC58B9E86A224A00EB800152F80F
:1042B000211021B901218140206988432061A86A29
:1042C00018B105F11800FFF775FC606A401C6062C8
:1042D0002068854208D11748291DA030FFF72EFD20
:1042E0006068401C606007E0A068401EA06028462F
:1042F000FFF77FFAFFF772FBFFF74CFD60690028BC
:1043000014D02068854211D1206B38B1502080F341
:104310001188BFF34F8FBFF36F8FFEE706494FF051
:1043200080500860BFF34F8FBFF36F8F70BD0000E8
:10433000B40000207802002004ED00E02DE9F047F1
:104340001E4691460C4607000ED0054605F1340086
:10435000C4E90050E86A2061286BE061686CA060E5
:10436000207B032803D00AE014480568EEE700F03C
:1043700035F9A86A08B10220207300F061FD4FF002
:104380000008E86CC4E90508052E01D0267303E097
:104390003846FEF7A5FF2073B9F1000F0BD00021BE
:1043A000286B01E0401C491C0278A52AFAD0880835
:1043B0002084BDE8F087A4F82080FAE7B40000204C
:1043C000F0B587B00027044607702C488168029139
:1043D000806800EBC0008000FFF75AFB06004BD05E
:1043E00000220299FFF7F8FBCDE9020738463AE0D0
:1043F00000EBC00006EB8000017B01290FD00229F1
:104400000FD003290FD004290FD000254168204682
:10441000FCF707FF2046FCF7FDFE202109E05225AE
:10442000F4E74225F2E75325F0E74425EEE721546F
:10443000401C0F28FBD327540444039800EBC00012
:1044400006EB80008268018CCDE9001203692A46E0
:104450000BA12046FEF7EAFC2046FCF7DBFE0444F5
:104460000398401C039002998842C1D307B030469C
:10447000BDE8F040FFF7A2BC07B0F0BDB4000020DB
:104480000925630925750925750925750D0A00009B
:1044900001490120C8617047B400002010B50C46E6
:1044A00050B1094909681831FFF730FC2046BDE8D2
:1044B00010400121FFF78CB8502080F31188BFF322
:1044C0004F8FBFF36F8FFEE7B400002070B504007C
:1044D00039D01D4DE06A2968C96A884233D2A06983
:1044E000002804DB2868C06AC0F10500A061E16A09
:1044F000164E01EB8101606906EB810188421FD1F4
:10450000201DFFF757FB012150B9E06A00EB800244
:1045100056F8222022B92A6901FA00F082432A6162
:104520002868C06AE0622A6981401143296100EB72
:10453000800006EB8000211DBDE87040FFF7FEBB48
:104540002868C06AE06270BDB400002078020020D4
:1045500028B107490A6A0260C96841607047502063
:1045600080F31188BFF34F8FBFF36F8FFEE700001A
:10457000B40000201CB515480024CDE900402346B6
:10458000802213A1144800F02BFB012809D0401C05
:104590001AD1502080F31188BFF34F8FBFF36F8F74
:1045A000FEE7502080F31188BFF34F8FBFF36F8F6A
:1045B00006484FF0FF312C38816201214161C4600F
:1045C000BDE81C4000F060B81CBD0000E000002009
:1045D00049444C4500000000553800080248016B72
:1045E000491C016370470000B400002010B5214C45
:1045F000206B10B10120E06110BD0020E061FDF7EB
:10460000F5F920684FF0A531006B02688A4208D1A5
:1046100042688A4205D182688A4202D1C0688842D3
:1046200004D0216820683431FFF73EFB206912492D
:10463000B0FA80F0C0F11F0000EB800051F820209C
:1046400082B101EB800000F10802416849684160D5
:10465000914201D149684160C8682060BDE81040BE
:10466000FDF7ACBD502080F31188BFF34F8FBFF32F
:104670006F8FFEE7B40000207802002001484068F8
:1046800070470000FC0000201CB532480168324A27
:10469000914207D1502080F31188BFF34F8FBFF3B1
:1046A0006F8FFEE700682C49491E884207D15020D1
:1046B00080F31188BFF34F8FBFF36F8FFEE7274959
:1046C00008780190FF20087008788DF800009DF8A8
:1046D00000009DF8002000F0F000904207D050202C
:1046E00080F31188BFF34F8FBFF36F8FFEE79DF804
:1046F00000001B4A00F0500010700720906005E099
:104700009DF800305B008DF80030401E9DF80030B1
:104710001B06F5D4000200F4E06090600198087078
:104720000C482030016841F470010160016841F0DB
:1047300070410160FFF770FB00205060FBF7B4FD93
:104740000848016841F040410160FBF79DFD0020F1
:104750001CBD000000ED00E071C20F4100E400E06C
:10476000F000002034EF00E02DE9F04117460E463E
:10477000050016D0EEB105FB06F05030FFF788F9C2
:1047800004000CD004F15000AEB12060C4E90F5613
:104790002046012100F0BAF8204684F84C70BDE8AC
:1047A000F081502080F31188BFF34F8FBFF36F8FDC
:1047B000FEE70020E1E72460E8E700002DE9FF4F75
:1047C000002683B09B468A46040008D0DFF8388173
:1047D000B1464FF08057BAF1000F08D011E05020D9
:1047E00080F31188BFF34F8FBFF36F8FFEE7206C0C
:1047F00038B1502080F31188BFF34F8FBFF36F8F14
:10480000FEE7FFF7A7FAA56B45B351462046E668D9
:10481000FEF7A6FFBBF1000F13D0E660606A50B14F
:1048200004F1240000F0D2FA28B1C8F80070BFF3F8
:104830004F8FBFF36F8FFFF7ADFA012007B0BDE8D0
:10484000F08F6D1EA563206810B9FFF791F96060C5
:1048500020690028EFD004F11000E3E7059808B1C3
:104860001EB106E0FFF796FA27E06846FFF770FEF4
:104870000126FFF78FFAFFF7B1FEFFF76BFA94F905
:104880004400401C01D184F8449094F94500401C38
:1048900001D184F84590FFF77DFA05A9684600F03C
:1048A00069F9002820460AD0FFF7BCF800F0C8FAE2
:1048B0002046FFF759F80028A3D00020BEE7FFF7F5
:1048C00053F8D8B1206830B9FFF744FA6068FFF7B1
:1048D000FDFDFFF75FFA04F124000599FFF7DEFD07
:1048E0002046FFF79FF800F0ABFA002889D1C8F8FE
:1048F0000070BFF34F8FBFF36F8F82E72046FFF743
:1049000091F800F09DFA7CE704ED00E070B50D46EB
:10491000040025D0FFF71EFAD4E90F20216802FB1E
:10492000001161600021A1632168A1600A46D4E9F9
:104930000F01401E00FB0121E16021464FF0FF30D6
:1049400001F8440F487004F110008DB1FFF7D0F961
:1049500004F12400FFF7CCF9FFF71CFA012070BD29
:10496000502080F31188BFF34F8FBFF36F8FFEE7A6
:1049700021690029F0D000F029FA0028ECD0044980
:104980004FF080500860BFF34F8FBFF36F8FE3E7A6
:1049900004ED00E02DE9FF4782B01D468A464FF046
:1049A0000008040003D0BAF1000F08D011E0502035
:1049B00080F31188BFF34F8FBFF36F8FFEE7206C3A
:1049C00038B1502080F31188BFF34F8FBFF36F8F42
:1049D000FEE7404F4FF000094FF08056022D0AD1FC
:1049E000E06B012807D0502080F31188BFF34F8F70
:1049F000BFF36F8FFEE7FFF7ADF9A06BE16B884265
:104A000007D3022D05D00498D0B1B8F1000F1AD009
:104A10001EE02A4651462046FEF7B5FE616A19B1EE
:104A200004F1240000F0D2F920B13E60BFF34F8FB3
:104A3000BFF36F8FFFF7AEF9012006B0BDE8F08736
:104A4000FFF7A8F922E06846FFF782FD4FF0010862
:104A5000FFF7A0F9FFF7C2FDFFF77CF994F94400D6
:104A6000401C01D184F8449094F94500401C01D1C8
:104A700084F84590FFF78EF904A9684600F07AF8AB
:104A800030B12046FEF7CEFF00F0DAF90020D4E77F
:104A9000FFF760F9A06BE16B884213D1FFF77AF959
:104AA00004F110000499FFF7F9FC2046FEF7BAFF65
:104AB00000F0C6F900289ED13E60BFF34F8FBFF3D0
:104AC0006F8F98E7FFF766F92046FEF7ABFF00F01F
:104AD000B7F990E704ED00E070B50E46040009D088
:104AE000206C78B1502080F31188BFF34F8FBFF353
:104AF0006F8FFEE7502080F31188BFF34F8FBFF315
:104B00006F8FFEE7206848B9606838B1502080F3A5
:104B10001188BFF34F8FBFF36F8FFEE7FFF78CF95C
:104B20005020EFF3118580F31188BFF34F8FBFF34F
:104B30006F8FA16BE06B884218D994F94500491C2E
:104B4000A163411C04D0401C84F8450001200EE004
:104B5000606A0028FAD004F1240000F037F9002838
:104B6000F4D0002EF2D001203060EFE7002085F372
:104B7000118870BD70B50D46040019D005B3FFF75C
:104B8000E9F8164AD1682868431C0FD02368126AD6
:104B9000934202D062688A421AD96268891A8142B5
:104BA00016D2401A28602046FFF7D2FC002410E0FD
:104BB000502080F31188BFF34F8FBFF36F8FFEE754
:104BC000502080F31188BFF34F8FBFF36F8FFEE744
:104BD0000124FFF7DFF8204670BD0000B40000207C
:104BE0002DE9FF5F8346DDE90E87994616468A4622
:104BF0009000FEF74DFF05001AD05C20FEF748FF3D
:104C0000040012D025630021CDE90241CDE90087DF
:104C10004B46324651465846FEF732FE2046FEF7D6
:104C20000FFD012004B0BDE8F09F2846FFF7C6F84D
:104C30004FF0FF30F6E700000148006870470000C1
:104C4000B40000200148C06870470000B400002094
:104C500010B5FFF7F1F80148C06810BDB40000209E
:104C60002DE9F041314C0027206B18B1A069401CA0
:104C7000A06152E0E668761CE66013D1606B0068C4
:104C800038B1502080F31188BFF34F8FBFF36F8F7F
:104C9000FEE7606BA16B6163A063206A401C206229
:104CA000FEF79CFEA06ADFF88880864209D3606B1D
:104CB000006890B1606BC068C568686886420FD2B2
:104CC000A0622068C06A00EB800158F8210001282A
:104CD00000D90127A06900B321E04FF0FF30EFE7D2
:104CE000281DFEF767FFA86A18B105F11800FEF746
:104CF00061FFE86A0121226981401143216100EBD3
:104D0000800108EB8100291DFFF718F8E86A216887
:104D1000C96A8842CBD30127C9E7FEF7CDFFE06916
:104D200000B101273846BDE8F0810000B400002042
:104D30007802002070B504004FF0000140D0214DF2
:104D40002868844207D0502080F31188BFF34F8F2A
:104D5000BFF36F8FFEE7206D38B1401E2065E36C16
:104D6000E26A9A422CD040B12AE0502080F31188A8
:104D7000BFF34F8FBFF36F8FFEE7201DFEF71AFFC3
:104D8000114A012150B9E06A00EB800352F8233048
:104D900023B92B6901FA00F083432B61E06CE062D8
:104DA000C0F10500A061E06A2B69814019432961C7
:104DB00000EB800002EB8000211DFEF7BFFF012108
:104DC000084670BDB4000020780200202DE9F041B3
:104DD000C068C468ACB104F118000746FEF7EAFEEB
:104DE000154D286B0126A0B139461448FEF7A6FFE1
:104DF000E06A2968C96A88421CD90120EE61BDE8D1
:104E0000F081502080F31188BFF34F8FBFF36F8F75
:104E1000FEE7201DFEF7CEFEE16A2A6906FA01F0E0
:104E20001043286101EB810004498C3901EB8000BB
:104E3000211DDBE70020E2E7B4000020040300208E
:104E40002DE9F0472C4D00242746286B38B1FEF79A
:104E500081FF286B401E2863286B40B146E050203C
:104E600080F31188BFF34F8FBFF36F8FFEE7A96800
:104E7000224E0120D1B3A6F18C0980463068E8B1FA
:104E8000F068C46804F11800FEF794FE201DFEF7D8
:104E900091FEE06A2A6908FA00F11143296100EBEA
:104EA000800109EB8100211DFEF748FFE06A2968B7
:104EB000C96A8842E2D3C5F81C80DFE70CB1FEF76F
:104EC0008DFDAC6944B14646FFF7CAFE00B1EE6104
:104ED000641EF9D10020A861E86938B108490127AA
:104EE00038070860BFF34F8FBFF36F8FFEF752FF95
:104EF0003846BDE8F0870000B4000020040300201D
:104F000004ED00E000000000272727003C3C3C00A7
:104F10004F4F4F005B5B5B006C6C6C007B7B7B00DE
:104F20008E8E8E009D9D9D00ADADAD00BEBEBE00BF
:104F3000D0D0D000E0E0E000F0F0F000FCFCFC009D
:104F4000FFFFFF0000002F0000004D000000600088
:104F500000007500000093000000AE000000CE00CD
:104F60000000EA000000FF002D2DFF005151FF005E
:104F70007575FF009797FF00B5B5FF00D2D2FF000F
:104F8000ECECFF00300060004100820050009F0008
:104F90006000BF006C00D9007800F0008000FF00C6
:104FA0009A35FF00AF60FF00BC79FF00CA95FF0093
:104FB000D5AAFF00E0C1FF00ECD9FF00F5ECFF002F
:104FC000FBF7FF00460046005E005E0075007500BE
:104FD00093009300AE00AE00D200D200E800E800DB
:104FE000FF00FF00FF44FF00FF77FF00FF8EFF0080
:104FF000FFA6FF00FFBFFF00FFD0FF00FFE6FF009E
:10500000FFF7FF004D0028006F003A0091004B00B1
:10501000AE005B00D2006F00FF008600FF1A920016
:10502000FF359F00FF5BB100FF77BE00FF8ECA0017
:10503000FFA4D300FFB5DC00FFCAE600FFE1F100EA
:10504000FFF4FA007900000093000000C6000000A1
:10505000C6000000E3000000FF282800FF4A4A00C5
:10506000FF6A6A00FF7D7D00FF939300FFAAAA00FC
:10507000FFB9B900FFCECE00FFDDDD00FFECEC0094
:10508000FFFBFB0079000000793D0000974B00001A
:10509000B55A0000CC660000E3720000FF800000FB
:1050A000FF942800FFA34600FFB36600FFC1840001
:1050B000FFCB9700FFD6AC00FFE1C400FFE9D200B0
:1050C000FFF5EC003E3E00005757000079790000E4
:1050D00093930000AEAE0000CACA0000E3E30000F4
:1050E000FFFF0000FFFF4D00FFFF8000FFFFA60055
:1050F000FFFFBB00FFFFCA00FFFFD900FFFFEC006E
:10510000FFFFFD00306000004A8101005898010057
:1051100068B4010074C8020082DF02008EF702004A
:105120009CFD1A00B3FE4E00C6FE7A00D1FE96002A
:10513000DCFEAD00E4FFC100EEFFD700F5FFE800A4
:10514000FDFFFB0000600000007500000091000002
:1051500000A6000000BB000000DB000000EC000027
:1051600028FF280053FF530079FF790093FF930035
:10517000A6FFA600BBFFBB00CEFFCE00DFFFDF0017
:10518000F0FFF00000754600008C540000A664009B
:1051900000BF730000D9820000EA8C0002FF9A0071
:1051A00024FFA8004AFFB70068FFC20080FFCC00C0
:1051B00093FFD300ACFFDE00C4FFE800D7FFEF0091
:1051C000E8FFF50000424200005B5B0000737300E3
:1051D000008C8C0000A6A60000C4C40000E1E10021
:1051E00000F9F90037FFFF006FFFFF0093FFFF009A
:1051F000AAFFFF00B9FFFF00CEFFFF00DFFFFF00A7
:10520000F4FFFF00004B5B0000647900007C970016
:10521000008FAE0000A3C60000B3D90000C1EA00B1
:1052200006D3FF0035DCFF0053E1FF006FE6FF000F
:1052300097EDFF00ACF0FF00C1F4FF00D7F8FF00CE
:10524000ECFCFF000042840000509F00005EBB00A9
:105250000069D2000075EA000080FF002492FF0080
:1052600042A0FF0060AFFF0077BBFF008EC7FF00CA
:10527000A4D1FF00B9DCFF00CAE4FF00DDEEFF00AF
:10528000F4FAFF0000216400002B84000034A20027
:10529000003DBB000046D9000050F7000958FF0050
:1052A0004080FF00598FFF006F9DFF0086ADFF001B
:1052B0009DBDFF00B3CBFF00C8DAFF00D9E6FF00B9
:1052C000EEF3FF00303061003A3A74004040800055
:1052D0004B4B98005A5AAD007070B8008888C400D3
:1052E0009E9ECF00B3B3D900C4C4E100D6D6EB0074
:1052F000E6E6F200306161003870700040808000A6
:105300004994940052A5A50061AFAF0073B9B900EC
:1053100087C2C2009ACDCD00ADD6D600BEDEDE007B
:10532000D0E8E8006666330078783D008080400071
:105330009D9D4F00ADAD5C00B7B76F00C0C0810050
:10534000CACA9500D1D1A300D9D9B300E1E1C40004
:10535000E9E9D10091484800A2515100AD5A5A00E4
:10536000B9737300C0808000CC999900D2A6A600C2
:10537000DCB8B800E2C7C700EBD8D800F2E6E60018
:10538000FAF3F30065336C00763D7E0086458F00AE
:10539000954D9F00A457AE00AD66B700B87AC00027
:1053A000C28ECA00CCA2D200D5B1DA00DEC2E200C1
:1053B000E8D3EB005379735469636B436F6E66698E
:1053C0006700000010000000D45300085454000887
:1053D000140000000000803F000000005E836C3F6E
:1053E00015EFC33EF304353FF304353F15EFC33EDD
:1053F0005E836C3F000000000000803F15EFC3BEDD
:105400005E836C3FF30435BFF304353F5E836CBFAE
:1054100015EFC33E000080BF000000005E836CBF3C
:1054200015EFC3BEF30435BFF30435BF15EFC3BE9C
:105430005E836CBF00000080000080BF15EFC33E9C
:105440005E836CBFF304353FF30435BF5E836C3F6E
:1054500015EFC3BE080040001800480010004000CF
:10546000280050002000400038005800300048005C
:105470005800680048006000680070000A0D55532D
:10548000415254205072696E7466204578616D7087
:105490006C653A2072657461726765742074686522
:1054A0002043206C696272617279207072696E7437
:1054B000662066756E6374696F6E20746F20746801
:1054C000652055534152540A0D000000EC54000869
:1054D0000000002030010000FA1200081C550008EE
:1054E0003001002010E20000642E00080140F2327A
:1054F00032035A01045A02042914690421D340409A
:1055000084BD0105000914010203040607080929E6
:0C5510001C091A20012C1AAA0101380005
:040000050800025598
:00000001FF
